:0F08C40012086712057B7F327E0012084B80F40A
:0807D600011501011408C10026
:1008670085901553150FD2A5A2A5920012087C12E8
:0508770008910208D306
:10057B0030A52A0513E51370020512D39432E51248
:10058B00648094804022E4F512F5130515D3E5152C
:10059B009407748094804010E4F515800BE4F512F9
:1005AB00F51385901553150F1208F5E51570047F9B
:1005BB000180027F008F11EF60117F647E001208B3
:1005CB004B1208B48F148515118014E51575F003C3
:1005DB00A42433F808E6FA08E6F912036B8F141219
:0505EB0008EB0208FF0F
:10089100C2A7C2AF85901553150F7803E515F2D2A3
:0208A100A7228C
:1008B400C2A778FFE4F220B0FD78FFE2FFD2A722BE
:0C08D300C2A4C2A37801E514F2D2A32253
:0908FF00C2A378FFE4F2D2A322A7
:10087C00C2A0D2A17800748FF208E514F27803E5D7
:05088C0015F2D2A022CC
:0A08EB00C2A07801E514F2D2A022A9
:0A08F500C2A07803E515F2D2A0229C
:1007DE000148C8012100202127FF06C0FF05F0FFB8
:1007EE000717FF0809FF065FFF0488FF03FDFF07D9
:0A07FE0062FF0505FF082BFF079CB2
:1006C000E4F50DF50EF50FF510F50FF5101208B461
:1006D00074082510F8A6070510E5107002050FC371
:1006E0009405E50F6480948040E3E4F50FF5107401
:1006F000082510F8E6250EF50EE4350DF50D05106C
:10070000E5107002050F6405450F70E3AE0DAF0EE6
:070710007C007D05020327B8
:1005F000E548651560247F147E0012084B1208B48C
:10060000AE07E4FFEFC39405748094805009742210
:100610002FF8A6060F80EDAF06227F04EFD39400DB
:1006200074809480400F74222FF8E6FE74232FF814
:10063000A6061F80E71208B48F22E4FFEFC39405DB
:1006400074809480501174222FF8E62509F509E48E
:0F0650003508F5080F80E5E50975F00584FF22F0
:100717001208B48F081208B48F09C3E5089FFFE4D5
:100727009400FE1208DFD3EF9414EE648094805097
:1007370003AF09221208B48F0AC3E5099FFFE494A7
:1007470000FE1208DFD3EF9414EE64809480500308
:0B075700AF0A22E50A250BC313FF22A6
:100809001208B48F08C3E5149FFFE49400FE120890
:10081900DFC3EF9432EE648094805003AF0822AFB7
:02082900142297
:10065F00E4F50EF50DC3E50D940574809480500EEE
:10066F001208B47408250DF8A607050D80E7750D5F
:10067F0001C3E50D9405748094805032E4FFC37478
:10068F0005950DFEEFC39E502174092FF8E6FE74F9
:10069F00082FF8E6FDD39E400E8D0E74082FF8A696
:1006AF000674092FF8A60E0F80D4050D80C3AF0A6C
:0106BF002218
:10048800E4F50EF50FF510F50DC3E50D9405748030
:100498009480500E1208B47408250DF8A607050DAF
:1004A80080E7750D01C3E50D940574809480503282
:1004B800E4FFC37405950DFEEFC39E502174092F08
:1004C800F8E6FE74082FF8E6FDD39E400E8D0E74F4
:1004D800082FF8A60674092FF8A60E0F80D4050D6C
:1004E80080C3E509250AFFE433FE7C00EF250BF500
:0D04F80010EC3EF50FFEAF107D0302032750
:1003FD00E4F50DF50EF50FF510851408F50F7510D4
:10040D00011208B4AE1074082EF8A60774072EF862
:10041D00E6FF74082510F8E6C39FFFE49400FE1272
:10042D0008DFD3EF9432EE64809480400EAF1074E9
:10043D00072FF8E6FE74082FF8A6060510E51070D4
:10044D0002050FC39405E50F6480948040B3E4F575
:10045D000FF51074082510F8E6250EF50EE4350D90
:10046D00F50D0510E5107002050F6405450F70E3DD
:0B047D00AE0DAF0E7C007D05020327D2
:100762001208B4AC07E412020B7B9A7A9979997851
:100772003E1200FBC004C005C006C007AC14E41260
:10078200020B7433FBFAF9783F1200FBD003D0025C
:0A079200D001D00012000A02023F5D
:10050500E4FBE548651560181208B4E4FBEBC394F9
:100515000574809480505E74222BF8A6070B80ED3D
:100525007B04EBD3940074809480400F74222BF8E5
:10053500E6FF74232BF8A6071B80E71208B48F2269
:10054500E4FBEBFF7E00C3940574809480501FEF9D
:100555002401FFEE33FE74222BF8E6FD7C00120227
:10056500C0EF2509F509EE3508F5080B80D4E50936
:0605750075F04B84FF222B
:10082B001208B48F14EF6005E4F52180020521D383
:10083B00E52194057480948040030208B4AF142220
:10079C001208B48F088F14EF6005E4F521801AC39A
:1007AC00E5149508FFE49400FE1208DFC3EF9432C1
:1007BC00EE6480948050020521D3E5219405748069
:0A07CC0094804003AF0822AF14220E
:1008A3007C007D0A1202D2EF1F70011E144E70F7F6
:0108B3002222
:10084B00AB07AA060BBB00010AEB1B70011A144A7B
:0C085B0060097F847E031208A380EE2257
:100003000202ABE86480F8E933E83360110460F07E
:10001300ED33EC337009E8FCE9FDEAFEEBFF220463
:1000230060DED3EB9FEA9EE99DE8C2E78CF0C2F75E
:1000330095F0400CE8CCF8E9CDF9EACEFAEBCFFB2A
:1000430012027685D0F05804700320D5B3E804700B
:10005300075002B2D50202B592D5EC0460F7E4CCA6
:10006300C0E0C398F8603B94186008400DD0E0FBF3
:1000730002028DE4FBFAC9FC8028E830E406E4C9F7
:10008300FBE4CAFCE830E305E4C9CACBFCE8540747
:100093006010F8C3E913F9EA13FAEB13FBEC13FC52
:1000A300D8F130F52FC3E49CFCEF9BFFEE9AFEEDF5
:1000B30099FDD0E0FBEF4E4D4C701222DB030202A0
:1000C300B2EC2CFCEF33FFEE33FEED33FDED30E706
:1000D300EB02028DEF2BFFEE3AFEED39FDD0E0FB94
:1000E30050130BBB00030202B5ED13FDEE13FEEF3D
:0800F30013FFEC13FC02028D67
:1000FB00EC4D6011E8497017ED33EC3304600DE4FF
:10010B00FCFFFEFD22E933E8330470F80202AB1268
:10011B00027658046009E4CC248150062850090269
:10012B0002B52840030202B2C0E0EB4A7044B9802A
:10013B0006D0E0FB0202A1EF4E701CBD8008EBFF66
:10014B00EAFEE9FD80EBE98DF0A4FEE5F00201E4A7
:10015B00E9CDF9EAFEEBFFEF89F0A4FCE5F0CE89DF
:10016B00F0A42EFFE435F0CD89F0A42DFEE435F09C
:10017B008067EF4E7005BD80D780C3EF8BF0A4ACCA
:10018B00F0EE8BF0A42CFCE435F0F8EF8AF0A42C05
:10019B00E5F038FCE433CB8DF0A42CFCE5F03BF818
:1001AB00EE8AF0A42CFCE5F038F8E433CF89F0A408
:1001BB002CFCE5F038CF3400CE89F0A42FFFE5F00E
:1001CB003EFEE433C98DF0A42EFEE5F039CD8AF066
:1001DB00A42FFFE5F03EFEE43DFD33D0E0FB5007DE
:1001EB000BBB000F0202B5EC2CFCEF33FFEE33FE22
:0601FB00ED33FD02028D50
:1002010075F020800E75F010800575F0087D007E78
:10021100007F003392D530D50312035DEC334010DB
:10022100EF33FFEE33FEED33FDEC33FCD5F0ED2281
:0E023100E5F0247EA2D513CC92E7CDCEFF22BD
:10023F00EDD2E7CD33EC3392D524814006E4FFFEB7
:10024F00FDFC22FCE4CFCECDCC24E0501174FF8016
:10025F00EDC3CC13CCCD13CDCE13CECF13CF0470B3
:07026F00F030D5DE02035D53
:10027600E9D2E7C933E833F892D5EDD2E7CD33ECCE
:0702860033FC5002B2D52247
:10028D00EC30E7100FBF000C0EBE00080DBD0004D2
:10029D000BEB6014A2D5EB13FCED92E7FD2274FF7E
:1002AD00FCFDFEFF22E480F8A2D574FF13FC7D80D7
:0302BD00E480EFEB
:0300000002037187
:0C037100787FE4F6D8FD7581480203B8DF
:1002C000EF8DF0A4A8F0CF8CF0A428CE8DF0A42E52
:0202D000FE220C
:1002D200BC000BBE0029EF8DF084FFADF022E4CC10
:1002E200F875F008EF2FFFEE33FEEC33FCEE9DECD9
:1002F200984005FCEE9DFE0FD5F0E9E4CEFD22ED1F
:10030200F8F5F0EE8420D21CFEADF075F008EF2F68
:10031200FFED33FD4007985006D5F0F222C398FD59
:050322000FD5F0EA22F6
:10032700C2D5EC30E709B2D5E4C39DFDE49CFCEEF1
:1003370030E715B2D5E4C39FFFE49EFE1202D2C395
:10034700E49DFDE49CFC80031202D230D507C3E490
:060357009FFFE49EFE2260
:0E035D00C3E49FFFE49EFEE49DFDE49CFC22B1
:06036B008A838982E4731D
:0C08DF00EE30E707C3E49FFFE49EFE221A
:10037D000208C4E493A3F8E493A34003F68001F2CA
:10038D0008DFF48029E493A3F85407240CC8C33381
:10039D00C4540F4420C8834004F456800146F6DF50
:1003AD00E4800B01020408102040809007D6E47E03
:1003BD00019360BCA3FF543F30E509541FFEE49345
:1003CD00A360010ECF54C025E060A840B8E493A30C
:1003DD00FAE493A3F8E493A3C8C582C8CAC583CA37
:1003ED00F0A3C8C582C8CAC583CADFE9DEE780BEEF
:0108080000EF
:00000001FF
