:0F08DC0012091512038C7F147E0012086A80F433
:0907720001130101120801110735
:090915001208861208AC0208CC9D
:10038C0030A52BA20030A501B35003120003D3E516
:10039C00159428748094804021E4F5150513D3E559
:1003AC00139407748094804011E4F513800C1209A7
:1003BC0030E4F51585901353130FA2A59200859088
:1003CC00115311F0E511C4540FF511D3940A748034
:1003DC009480400375110A12090B120901E514658A
:1003EC001360267F647E0012086A1208BC8F12E428
:1003FC00FFEFC3940574809480500974242FF8A6E1
:10040C00120F80ED8513148014E51175F003A424EC
:10041C0029F808E6FA08E6F91203868F121208F793
:03042C0002091EA4
:1008AC00C2A785901353130F7803E513F2D2A72236
:1008BC00C2A778FFE4F220B0FD78FFE2FFD2A722B6
:1008CC00C2A4C2A37801E512F278FFE4F2D2A3220B
:09091E00C2A378FFE4F2D2A32287
:10088600C2A0D2A17800748FF208E512F27803E5CF
:0508960013F2D2A022C4
:0A08F700C2A07801E512F2D2A0229F
:0A090100C2A07803E513F2D2A02291
:0A090B00C2A07802E511F2D2A0228A
:10077B0005240000000000012300012100012200DC
:10078B00202129FF068AFF072CFF06E1FF0827FF20
:10079B000629FF0546FF04BBFF07EDFF05C3FF0856
:0407AB0049FF07B04B
:10068A00E4F50DF50EF50FF510F50FF5101208BC8F
:10069A0074082510F8A6070510E5107002050FC3A7
:1006AA009405E50F6480948040E3E4F50FF5107437
:1006BA00082510F8E6250EF50EE4350DF50D0510A2
:1006CA00E5107002050F6405450F70E3AE0DAF0E1D
:0706DA007C007D05020342D4
:10072C00E4F508F5090521D3E5219404748094803F
:10073C004003E4F5211208BC74242521F8A607E433
:10074C00FFFE74242FF8E62509F509E43508F508B1
:10075C000FBF00010EEF64054E70E7AE08AF097CC9
:06076C00007D05020342BE
:1006E1001208BC8F081208BC8F09C3E5089FFFE4FC
:1006F1009400FE1208EBD3EF9414EE6480948050C2
:1007010003AF09221208BC8F0AC3E5099FFFE494D5
:1007110000FE1208EBD3EF9414EE64809480500332
:0B072100AF0A22E509250AC313FF22DE
:100827001208BC8F08C3E5129FFFE49400FE12086C
:10083700EBC3EF9432EE648094805003AF0822AF8D
:0208470012227B
:10062900E4F50EF50DC3E50D940574809480500E24
:100639001208BC7408250DF8A607050D80E7750D8D
:1006490001C3E50D9405748094805032E4FFC374AE
:1006590005950DFEEFC39E502174092FF8E6FE742F
:10066900082FF8E6FDD39E400E8D0E74082FF8A6CC
:100679000674092FF8A60E0F80D4050D80C3AF0AA2
:01068900224E
:10054600E4F50EF50FF510F50DC3E50D9405748071
:100556009480500E1208BC7408250DF8A607050DE8
:1005660080E7750D01C3E50D9405748094805032C3
:10057600E4FFC37405950DFEEFC39E502174092F49
:10058600F8E6FE74082FF8E6FDD39E400E8D0E7435
:10059600082FF8A60674092FF8A60E0F80D4050DAD
:1005A60080C3E509250AFFE433FE7C00EF250BF541
:0D05B60010EC3EF50FFEAF107D0302034276
:1004BB00E4F50DF50EF50FF510851208F50F751017
:1004CB00011208BCAE1074082EF8A60774072EF89C
:1004DB00E6FF74082510F8E6C39FFFE49400FE12B4
:1004EB0008EBD3EF9432EE64809480400EAF10741F
:1004FB00072FF8E6FE74082FF8A6060510E5107016
:10050B0002050FC39405E50F6480948040B3E4F5B6
:10051B000FF51074082510F8E6250EF50EE4350DD1
:10052B00F50D0510E5107002050F6405450F70E31E
:0B053B00AE0DAF0E7C007D05020342F8
:1007ED001208BCAC07E41202267B9A7A99799978A3
:1007FD003E120116C004C005C006C007AC12E412BB
:10080D0002267433FBFAF9783F120116D003D00299
:0A081D00D001D00012002502025A9B
:1005C300E4F508F5090522D3E522940474809480A8
:1005D3004003E4F5221208BC74242522F8A607E49C
:1005E300FBFAE5222401FFE433FE74242522F8E616
:1005F300FD7C001202DBEF2509F509EE3508F5084D
:100603000522D3E5229404748094804003E4F52208
:100613000BBB00010AEB64054A70C7AE08AF097C47
:06062300007D0F020342FE
:100849001208BCE512B50705E4F52380020523E586
:1008590023D39405748094804004E4F52322AF12D5
:01086900226C
:1007B0001208BC8F08E512B50805E4F523801AC3BA
:1007C000E5129508FFE49400FE1208EBC3EF9432A3
:1007D000EE6480948050020523D3E5239405748051
:0D07E00094804006E4F523AF0822AF1222FA
:10089B007C007D0A1202EDEF1F70011E144E70F7E3
:0108AB00222A
:10086A00AB07AA060BBB00010AEB1B70011A144A5C
:0C087A0060097F847E0312089B80EE2240
:03001B00020927B0
:090927000515758D24758BFA325B
:10000300C2AFC2ABC28E758910758D24758BFAD2BF
:06001300AFD2ABD28E2239
:07093000C2AFC2ABC28E2270
:10001E000202C6E86480F8E933E83360110460F048
:10002E00ED33EC337009E8FCE9FDEAFEEBFF220448
:10003E0060DED3EB9FEA9EE99DE8C2E78CF0C2F743
:10004E0095F0400CE8CCF8E9CDF9EACEFAEBCFFB0F
:10005E0012029185D0F05804700320D5B3E80470D5
:10006E00075002B2D50202D092D5EC0460F7E4CC70
:10007E00C0E0C398F8603B94186008400DD0E0FBD8
:10008E000202A8E4FBFAC9FC8028E830E406E4C9C1
:10009E00FBE4CAFCE830E305E4C9CACBFCE854072C
:1000AE006010F8C3E913F9EA13FAEB13FBEC13FC37
:1000BE00D8F130F52FC3E49CFCEF9BFFEE9AFEEDDA
:1000CE0099FDD0E0FBEF4E4D4C701222DB03020285
:1000DE00CDEC2CFCEF33FFEE33FEED33FDED30E7D0
:1000EE00EB0202A8EF2BFFEE3AFEED39FDD0E0FB5E
:1000FE0050130BBB00030202D0ED13FDEE13FEEF07
:08010E0013FFEC13FC0202A830
:10011600EC4D6011E8497017ED33EC3304600DE4E3
:10012600FCFFFEFD22E933E8330470F80202C61232
:10013600029158046009E4CC248150062850090233
:1001460002D02840030202CDC0E0EB4A7044B980D9
:1001560006D0E0FB0202BCEF4E701CBD8008EBFF30
:10016600EAFEE9FD80EBE98DF0A4FEE5F00201FF71
:10017600E9CDF9EAFEEBFFEF89F0A4FCE5F0CE89C4
:10018600F0A42EFFE435F0CD89F0A42DFEE435F081
:100196008067EF4E7005BD80D780C3EF8BF0A4ACAF
:1001A600F0EE8BF0A42CFCE435F0F8EF8AF0A42CEA
:1001B600E5F038FCE433CB8DF0A42CFCE5F03BF8FD
:1001C600EE8AF0A42CFCE5F038F8E433CF89F0A4ED
:1001D6002CFCE5F038CF3400CE89F0A42FFFE5F0F3
:1001E6003EFEE433C98DF0A42EFEE5F039CD8AF04B
:1001F600A42FFFE5F03EFEE43DFD33D0E0FB5007C3
:100206000BBB000F0202D0EC2CFCEF33FFEE33FEEB
:06021600ED33FD0202A819
:10021C0075F020800E75F010800575F0087D007E5D
:10022C00007F003392D530D503120378EC334010A5
:10023C00EF33FFEE33FEED33FDEC33FCD5F0ED2266
:0E024C00E5F0247EA2D513CC92E7CDCEFF22A2
:10025A00EDD2E7CD33EC3392D524814006E4FFFE9C
:10026A00FDFC22FCE4CFCECDCC24E0501174FF80FB
:10027A00EDC3CC13CCCD13CDCE13CECF13CF047098
:07028A00F030D5DE0203781D
:10029100E9D2E7C933E833F892D5EDD2E7CD33ECB3
:0702A10033FC5002B2D5222C
:1002A800EC30E7100FBF000C0EBE00080DBD0004B7
:1002B8000BEB6014A2D5EB13FCED92E7FD2274FF63
:1002C800FCFDFEFF22E480F8A2D574FF13FC7D80BC
:0302D800E480EFD0
:0300000002042FC8
:0C042F00787FE4F6D8FD75814902047660
:1002DB00EF8DF0A4A8F0CF8CF0A428CE8DF0A42E37
:0202EB00FE22F1
:1002ED00BC000BBE0029EF8DF084FFADF022E4CCF5
:1002FD00F875F008EF2FFFEE33FEEC33FCEE9DECBE
:10030D00984005FCEE9DFE0FD5F0E9E4CEFD22ED03
:10031D00F8F5F0EE8420D21CFEADF075F008EF2F4D
:10032D00FFED33FD4007985006D5F0F222C398FD3E
:05033D000FD5F0EA22DB
:10034200C2D5EC30E709B2D5E4C39DFDE49CFCEED6
:1003520030E715B2D5E4C39FFFE49EFE1202EDC35F
:10036200E49DFDE49CFC80031202ED30D507C3E45A
:060372009FFFE49EFE2245
:0E037800C3E49FFFE49EFEE49DFDE49CFC2296
:060386008A838982E47302
:0C08EB00EE30E707C3E49FFFE49EFE220E
:10043B000208DCE493A3F8E493A34003F68001F2F3
:10044B0008DFF48029E493A3F85407240CC8C333C2
:10045B00C4540F4420C8834004F456800146F6DF91
:10046B00E4800B0102040810204080900772E47EA8
:10047B00019360BCA3FF543F30E509541FFEE49386
:10048B00A360010ECF54C025E060A840B8E493A34D
:10049B00FAE493A3F8E493A3C8C582C8CAC583CA78
:1004AB00F0A3C8C582C8CAC583CADFE9DEE780BE30
:0107AF000049
:00000001FF
