:0F08BF001208EE12057B7F0A7E0012084D80F4AE
:0607D900013D01013C0896
:0908EE0012086912088F0208AF1C
:10057B0030A52A053BE53B7002053AD39432E53AA8
:10058B00648094804022E4F53AF53B053DD3E53D8C
:10059B009407748094804010E4F53D800BE4F53AA9
:1005AB00F53B85903D533D0F1208E4E53D70047F0C
:1005BB000180027F008F39EF60117F647E0012088B
:1005CB004D12089F8F3C853D398014E53D75F00336
:1005DB00A42417F808E6FA08E6F912036B8F3C120D
:0505EB0008DA0208F728
:10088F00C2A785903D533D0F7803E53DF2D2A722D5
:10089F00C2A778FFE4F220B0FD78FFE2FFD2A722D3
:1008AF00C2A4C2A37801E53CF278FFE4F2D2A322FE
:0908F700C2A378FFE4F2D2A322AF
:10086900C2A0D2A17800748FF208E53CF27803E5C2
:050879003DF2D2A022B7
:0A08DA00C2A07801E53CF2D2A02292
:0A08E400C2A07803E53DF2D2A02285
:1007DF00012FC801080020210EFF06C0FF05F0FF02
:1007EF000717FF080AFF065FFF0488FF03FDFF07D7
:0A07FF009FFF0505FF082CFF0762AD
:1006C000E4F535F536F537F538F537F53812089F86
:1006D00074302538F8A6070538E53870020537C3A9
:1006E0009405E5376480948040E3E4F537F5387489
:1006F000302538F8E62536F536E43535F535053854
:10070000E538700205376405453770E3AE35AF361E
:070710007C007D05020327B8
:1005F000E52F653D60247F147E0012084D12089F90
:10060000AE07E4FFEFC39405748094805009740929
:100610002FF8A6060F80EDAF06227F04EFD39400DB
:1006200074809480400F74092FF8E6FE740A2FF846
:10063000A6061F80E712089F8F09E4FFEFC3940509
:1006400074809480501174092FF8E62531F531E457
:0F0650003530F5300F80E5E53175F00584FF2278
:1007170012089F8F3012089F8F31C3E5309FFFE487
:100727009400FE1208CED3EF9414EE6480948050A8
:1007370003AF312212089F8F32C3E5319FFFE49444
:1007470000FE1208CED3EF9414EE64809480500319
:0B075700AF3222E5322533C313FF222E
:10080A0012089F8F30C3E53C9FFFE49400FE120854
:10081A00CEC3EF9432EE648094805003AF3022AF9F
:02082A003C226E
:10065F00E4F536F535C3E535940574809480500E76
:10066F0012089F74302535F8A607053580E77535D4
:10067F0001C3E5359405748094805032E4FFC37450
:10068F00059535FEEFC39E502174312FF8E6FE74A9
:10069F00302FF8E6FDD39E400E8D3674302FF8A61E
:1006AF000674312FF8A6360F80D4053580C3AF32CC
:0106BF002218
:10048800E4F536F537F538F535C3E5359405748068
:100498009480500E12089F74302535F8A60705354C
:1004A80080E7753501C3E535940574809480503232
:1004B800E4FFC374059535FEEFC39E502174312FB8
:1004C800F8E6FE74302FF8E6FDD39E400E8D3674A4
:1004D800302FF8A60674312FF8A6360F80D40535CC
:1004E80080C3E5312532FFE433FE7C00EF2533F588
:0D04F80038EC3EF537FEAF387D03020327D8
:1003FD00E4F535F536F537F538853C30F537753894
:10040D000112089FAE3874302EF8A607742F2EF8FF
:10041D00E6FF74302538F8E6C39FFFE49400FE1222
:10042D0008CED3EF9432EE64809480400EAF3874D2
:10043D002F2FF8E6FE74302FF8A6060538E5387034
:10044D00020537C39405E5376480948040B3E4F525
:10045D0037F53874302538F8E62536F536E4353578
:10046D00F5350538E538700205376405453770E315
:0B047D00AE35AF367C007D0502032782
:10079F0012089FAC07E412020B7B9A7A9979997829
:1007AF003E1200FBC004C005C006C007AC3CE412FB
:1007BF00020B7433FBFAF9783F1200FBD003D0021F
:0A07CF00D001D00012000A02023F20
:10050500E4FBE52F653D601812089FE4FBEBC394FF
:100515000574809480505E74092BF8A6070B80ED56
:100525007B04EBD3940074809480400F74092BF8FE
:10053500E6FF740A2BF8A6071B80E712089F8F09B0
:10054500E4FBEBFF7E00C3940574809480501FEF9D
:100555002401FFEE33FE74092BF8E6FD7C00120240
:10056500C0EF2531F531EE3530F5300B80D4E5316E
:0605750075F04B84FF222B
:10082C0012089FE53CB50705E4F50880020508E5CC
:10083C0008D39405748094804004E4F50822AF3CFE
:01084C002289
:1007620012089F8F30E53CB53005E4F508801AC3C6
:10077200E53C9530FFE49400FE1208CEC3EF9432BC
:10078200EE6480948050020508D3E50894057480D5
:0D07920094804006E4F508AF3022AF3C2211
:10087E007C007D0A1202D2EF1F70011E144E70F71B
:01088E002247
:10084D00AB07AA060BBB00010AEB1B70011A144A79
:0C085D0060097F847E0312087E80EE227A
:100003000202ABE86480F8E933E83360110460F07E
:10001300ED33EC337009E8FCE9FDEAFEEBFF220463
:1000230060DED3EB9FEA9EE99DE8C2E78CF0C2F75E
:1000330095F0400CE8CCF8E9CDF9EACEFAEBCFFB2A
:1000430012027685D0F05804700320D5B3E804700B
:10005300075002B2D50202B592D5EC0460F7E4CCA6
:10006300C0E0C398F8603B94186008400DD0E0FBF3
:1000730002028DE4FBFAC9FC8028E830E406E4C9F7
:10008300FBE4CAFCE830E305E4C9CACBFCE8540747
:100093006010F8C3E913F9EA13FAEB13FBEC13FC52
:1000A300D8F130F52FC3E49CFCEF9BFFEE9AFEEDF5
:1000B30099FDD0E0FBEF4E4D4C701222DB030202A0
:1000C300B2EC2CFCEF33FFEE33FEED33FDED30E706
:1000D300EB02028DEF2BFFEE3AFEED39FDD0E0FB94
:1000E30050130BBB00030202B5ED13FDEE13FEEF3D
:0800F30013FFEC13FC02028D67
:1000FB00EC4D6011E8497017ED33EC3304600DE4FF
:10010B00FCFFFEFD22E933E8330470F80202AB1268
:10011B00027658046009E4CC248150062850090269
:10012B0002B52840030202B2C0E0EB4A7044B9802A
:10013B0006D0E0FB0202A1EF4E701CBD8008EBFF66
:10014B00EAFEE9FD80EBE98DF0A4FEE5F00201E4A7
:10015B00E9CDF9EAFEEBFFEF89F0A4FCE5F0CE89DF
:10016B00F0A42EFFE435F0CD89F0A42DFEE435F09C
:10017B008067EF4E7005BD80D780C3EF8BF0A4ACCA
:10018B00F0EE8BF0A42CFCE435F0F8EF8AF0A42C05
:10019B00E5F038FCE433CB8DF0A42CFCE5F03BF818
:1001AB00EE8AF0A42CFCE5F038F8E433CF89F0A408
:1001BB002CFCE5F038CF3400CE89F0A42FFFE5F00E
:1001CB003EFEE433C98DF0A42EFEE5F039CD8AF066
:1001DB00A42FFFE5F03EFEE43DFD33D0E0FB5007DE
:1001EB000BBB000F0202B5EC2CFCEF33FFEE33FE22
:0601FB00ED33FD02028D50
:1002010075F020800E75F010800575F0087D007E78
:10021100007F003392D530D50312035DEC334010DB
:10022100EF33FFEE33FEED33FDEC33FCD5F0ED2281
:0E023100E5F0247EA2D513CC92E7CDCEFF22BD
:10023F00EDD2E7CD33EC3392D524814006E4FFFEB7
:10024F00FDFC22FCE4CFCECDCC24E0501174FF8016
:10025F00EDC3CC13CCCD13CDCE13CECF13CF0470B3
:07026F00F030D5DE02035D53
:10027600E9D2E7C933E833F892D5EDD2E7CD33ECCE
:0702860033FC5002B2D52247
:10028D00EC30E7100FBF000C0EBE00080DBD0004D2
:10029D000BEB6014A2D5EB13FCED92E7FD2274FF7E
:1002AD00FCFDFEFF22E480F8A2D574FF13FC7D80D7
:0302BD00E480EFEB
:0300000002037187
:0C037100787FE4F6D8FD75813D0203B8EA
:1002C000EF8DF0A4A8F0CF8CF0A428CE8DF0A42E52
:0202D000FE220C
:1002D200BC000BBE0029EF8DF084FFADF022E4CC10
:1002E200F875F008EF2FFFEE33FEEC33FCEE9DECD9
:1002F200984005FCEE9DFE0FD5F0E9E4CEFD22ED1F
:10030200F8F5F0EE8420D21CFEADF075F008EF2F68
:10031200FFED33FD4007985006D5F0F222C398FD59
:050322000FD5F0EA22F6
:10032700C2D5EC30E709B2D5E4C39DFDE49CFCEEF1
:1003370030E715B2D5E4C39FFFE49EFE1202D2C395
:10034700E49DFDE49CFC80031202D230D507C3E490
:060357009FFFE49EFE2260
:0E035D00C3E49FFFE49EFEE49DFDE49CFC22B1
:06036B008A838982E4731D
:0C08CE00EE30E707C3E49FFFE49EFE222B
:10037D000208BFE493A3F8E493A34003F68001F2CF
:10038D0008DFF48029E493A3F85407240CC8C33381
:10039D00C4540F4420C8834004F456800146F6DF50
:1003AD00E4800B01020408102040809007D9E47E00
:1003BD00019360BCA3FF543F30E509541FFEE49345
:1003CD00A360010ECF54C025E060A840B8E493A30C
:1003DD00FAE493A3F8E493A3C8C582C8CAC583CA37
:1003ED00F0A3C8C582C8CAC583CADFE9DEE780BEEF
:0108090000EE
:00000001FF
