:0F08F50012092E12038C7F147E0012088380F4E8
:0907CB00011301011208011107DC
:09092E0012089F1208C50208E539
:10038C0030A52BA20030A501B35003120003D3E516
:10039C00159428748094804021E4F5150513D3E559
:1003AC00139407748094804011E4F513800C1209A7
:1003BC0049E4F51585901353130FA2A5920085906F
:1003CC00115311F0E511C4540FF511D3940A748034
:1003DC009480400375110A12092412091AE5146558
:1003EC001360117F647E001208831208D58F12856A
:1003FC0013148014E51175F003A42427F808E6FA09
:0E040C0008E6F91203868F1212091002093752
:1008C500C2A785901353130F7803E513F2D2A7221D
:1008D500C2A778FFE4F220B0FD78FFE2FFD2A7229D
:1008E500C2A4C2A37801E512F278FFE4F2D2A322F2
:09093700C2A378FFE4F2D2A3226E
:10089F00C2A0D2A17800748FF208E512F27803E5B6
:0508AF0013F2D2A022AB
:0A091000C2A07801E512F2D2A02285
:0A091A00C2A07803E513F2D2A02278
:0A092400C2A07802E511F2D2A02271
:1007D4000148C80522000000000001210020212753
:1007E400FF06F4FF0624FF0743FF0840FF0693FFBC
:1007F4000531FF04A6FF0806FF05AEFF0862FF07E8
:010804008E65
:1006F400E4F50DF50EF50FF510F50FF5101208D50C
:1007040074082510F8A6070510E5107002050FC33C
:100714009405E50F6480948040E3E4F50FF51074CC
:10072400082510F8E6250EF50EE4350DF50D051037
:0F073400E5107002050F6405450F70E37F00228A
:10062400E548651360247F147E001208831208D500
:10063400AE07E4FFEFC394057480948050097422DC
:100644002FF8A6060F80EDAF06227F04EFD39400A7
:1006540074809480400F74222FF8E6FE74232FF8E0
:10066400A6061F80E71208D58F22E4FFEFC3940586
:1006740074809480501174222FF8E62509F509E45A
:0F0684003508F5080F80E5E50975F00584FF22BC
:100743001208D58F081208D58F09C3E5089FFFE467
:100753009400FE120904D3EF9414EE648094805045
:1007630003AF09221208D58F0AC3E5099FFFE4945A
:1007730000FE120904D3EF9414EE648094805003B6
:0B078300AF0A22E50A250BC313FF227A
:100840001208D58F08C3E5129FFFE49400FE120939
:1008500004C3EF9432EE648094805003AF0822AF5B
:02086000122262
:10069300E4F50EF50DC3E50D940574809480500EBA
:1006A3001208D57408250DF8A607050D80E7750D0A
:1006B30001C3E50D9405748094805032E4FFC37444
:1006C30005950DFEEFC39E502174092FF8E6FE74C5
:1006D300082FF8E6FDD39E400E8D0E74082FF8A662
:1006E3000674092FF8A60E0F80D4050D80C3AF0A38
:0106F30022E4
:10053100E4F50EF50FF510F50DC3E50D9405748086
:100541009480500E1208D57408250DF8A607050DE4
:1005510080E7750D01C3E50D9405748094805032D8
:10056100E4FFC37405950DFEEFC39E502174092F5E
:10057100F8E6FE74082FF8E6FDD39E400E8D0E744A
:10058100082FF8A60674092FF8A60E0F80D4050DC2
:1005910080C3E509250AFFE433FE7C00EF250BF556
:0D05A10010EC3EF50FFEAF107D030203428B
:1004A600E4F50DF50EF50FF510851208F50F75102C
:1004B600011208D5AE1074082EF8A60774072EF898
:1004C600E6FF74082510F8E6C39FFFE49400FE12C9
:1004D6000904D3EF9432EE64809480400EAF10741A
:1004E600072FF8E6FE74082FF8A6060510E510702B
:1004F60002050FC39405E50F6480948040B3E4F5CC
:100506000FF51074082510F8E6250EF50EE4350DE6
:10051600F50D0510E5107002050F6405450F70E333
:0B052600AE0DAF0E7C007D050203420D
:100806001208D5AC07E41202267B9A7A9979997870
:100816003E120116C004C005C006C007AC12E412A1
:1008260002267433FBFAF9783F120116D003D00280
:0A083600D001D00012002502025A82
:1005AE00E4FBE548651360181208D5E4FBEBC39431
:1005BE000574809480505E74222BF8A6070B80ED94
:1005CE007B04EBD3940074809480400F74222BF83C
:1005DE00E6FF74232BF8A6071B80E71208D58F229F
:1005EE00E4FBEBFF7E00C3940574809480501FEFF4
:1005FE002401FFEE33FE74222BF8E6FD7C0012027E
:10060E00DBEF2509F509EE3508F5080B80D4E50971
:06061E0075F04B84FF2281
:100862001208D5E512B50705E4F52180020521E558
:1008720021D39405748094804004E4F52122AF12C0
:010882002253
:10078E001208D58F08E512B50805E4F521801AC3C5
:10079E00E5129508FFE49400FE120904C3EF9432AB
:1007AE00EE6480948050020521D3E5219405748077
:0D07BE0094804006E4F521AF0822AF12221E
:1008B4007C007D0A1202EDEF1F70011E144E70F7CA
:0108C4002211
:10088300AB07AA060BBB00010AEB1B70011A144A43
:0C08930060097F847E031208B480EE220E
:03001B0002094097
:090940000515758D24758BFA3242
:10000300C2AFC2ABC28E758910758D24758BFAD2BF
:06001300AFD2ABD28E2239
:07094900C2AFC2ABC28E2257
:10001E000202C6E86480F8E933E83360110460F048
:10002E00ED33EC337009E8FCE9FDEAFEEBFF220448
:10003E0060DED3EB9FEA9EE99DE8C2E78CF0C2F743
:10004E0095F0400CE8CCF8E9CDF9EACEFAEBCFFB0F
:10005E0012029185D0F05804700320D5B3E80470D5
:10006E00075002B2D50202D092D5EC0460F7E4CC70
:10007E00C0E0C398F8603B94186008400DD0E0FBD8
:10008E000202A8E4FBFAC9FC8028E830E406E4C9C1
:10009E00FBE4CAFCE830E305E4C9CACBFCE854072C
:1000AE006010F8C3E913F9EA13FAEB13FBEC13FC37
:1000BE00D8F130F52FC3E49CFCEF9BFFEE9AFEEDDA
:1000CE0099FDD0E0FBEF4E4D4C701222DB03020285
:1000DE00CDEC2CFCEF33FFEE33FEED33FDED30E7D0
:1000EE00EB0202A8EF2BFFEE3AFEED39FDD0E0FB5E
:1000FE0050130BBB00030202D0ED13FDEE13FEEF07
:08010E0013FFEC13FC0202A830
:10011600EC4D6011E8497017ED33EC3304600DE4E3
:10012600FCFFFEFD22E933E8330470F80202C61232
:10013600029158046009E4CC248150062850090233
:1001460002D02840030202CDC0E0EB4A7044B980D9
:1001560006D0E0FB0202BCEF4E701CBD8008EBFF30
:10016600EAFEE9FD80EBE98DF0A4FEE5F00201FF71
:10017600E9CDF9EAFEEBFFEF89F0A4FCE5F0CE89C4
:10018600F0A42EFFE435F0CD89F0A42DFEE435F081
:100196008067EF4E7005BD80D780C3EF8BF0A4ACAF
:1001A600F0EE8BF0A42CFCE435F0F8EF8AF0A42CEA
:1001B600E5F038FCE433CB8DF0A42CFCE5F03BF8FD
:1001C600EE8AF0A42CFCE5F038F8E433CF89F0A4ED
:1001D6002CFCE5F038CF3400CE89F0A42FFFE5F0F3
:1001E6003EFEE433C98DF0A42EFEE5F039CD8AF04B
:1001F600A42FFFE5F03EFEE43DFD33D0E0FB5007C3
:100206000BBB000F0202D0EC2CFCEF33FFEE33FEEB
:06021600ED33FD0202A819
:10021C0075F020800E75F010800575F0087D007E5D
:10022C00007F003392D530D503120378EC334010A5
:10023C00EF33FFEE33FEED33FDEC33FCD5F0ED2266
:0E024C00E5F0247EA2D513CC92E7CDCEFF22A2
:10025A00EDD2E7CD33EC3392D524814006E4FFFE9C
:10026A00FDFC22FCE4CFCECDCC24E0501174FF80FB
:10027A00EDC3CC13CCCD13CDCE13CECF13CF047098
:07028A00F030D5DE0203781D
:10029100E9D2E7C933E833F892D5EDD2E7CD33ECB3
:0702A10033FC5002B2D5222C
:1002A800EC30E7100FBF000C0EBE00080DBD0004B7
:1002B8000BEB6014A2D5EB13FCED92E7FD2274FF63
:1002C800FCFDFEFF22E480F8A2D574FF13FC7D80BC
:0302D800E480EFD0
:0300000002041ADD
:0C041A00787FE4F6D8FD7581480204618B
:1002DB00EF8DF0A4A8F0CF8CF0A428CE8DF0A42E37
:0202EB00FE22F1
:1002ED00BC000BBE0029EF8DF084FFADF022E4CCF5
:1002FD00F875F008EF2FFFEE33FEEC33FCEE9DECBE
:10030D00984005FCEE9DFE0FD5F0E9E4CEFD22ED03
:10031D00F8F5F0EE8420D21CFEADF075F008EF2F4D
:10032D00FFED33FD4007985006D5F0F222C398FD3E
:05033D000FD5F0EA22DB
:10034200C2D5EC30E709B2D5E4C39DFDE49CFCEED6
:1003520030E715B2D5E4C39FFFE49EFE1202EDC35F
:10036200E49DFDE49CFC80031202ED30D507C3E45A
:060372009FFFE49EFE2245
:0E037800C3E49FFFE49EFEE49DFDE49CFC2296
:060386008A838982E47302
:0C090400EE30E707C3E49FFFE49EFE22F4
:100426000208F5E493A3F8E493A34003F68001F2EF
:1004360008DFF48029E493A3F85407240CC8C333D7
:10044600C4540F4420C8834004F456800146F6DFA6
:10045600E4800B01020408102040809007CBE47E64
:10046600019360BCA3FF543F30E509541FFEE4939B
:10047600A360010ECF54C025E060A840B8E493A362
:10048600FAE493A3F8E493A3C8C582C8CAC583CA8D
:10049600F0A3C8C582C8CAC583CADFE9DEE780BE45
:0108050000F2
:00000001FF
